:100000000C94060A0C94330A0C94330A0C94330AA9
:100010000C94330A0C94330A0C94330A0C94330A6C
:100020000C94330A0C94330A0C94330A0C94330A5C
:100030000C9431460C94330A0C94330A0C94330A12
:100040000C94330A0C9489280C94330A0C94330AC8
:100050000C94330A0C94330A0C94330A0C94330A2C
:100060000C94330A0C9408460C94DE450C94330A25
:100070000C94330A0C94330A0C94330A0C94330A0C
:100080000C94330A0C94330A0C94330A0C94330AFC
:100090000C94330A0C94330A0C94330A0C94330AEC
:1000A0000C94330A0C94330A0C94330A0C94330ADC
:1000B0000C94330A0C94330A0C94330A0C94330ACC
:1000C0000C94330A0C94330A0C94330A0C94330ABC
:1000D0000C94330A0C94330A0C94330A0C94330AAC
:1000E0000C94330A0C948D230C94C9300C94464321
:1000F0000C947F400C94BF230C94F6350C94B12BD8
:100100000C94C6310C94B1260C9497360C94762F2F
:100110000C940E2E0C944F180C94F22F0C944E2429
:100120000C94A31B0C94D52E0C9447170C94CC2B39
:100130000C9495370C9404310C94B6360C943D20F5
:100140000C9403190C94D5350C942F330C948821FE
:100150000C9421190C941E3B0C94F4430C94CF2A5C
:100160000C941A260C947F450C946B190C941C1B50
:100170000C94B7400C949B400C9443240C94D638B8
:100180000C94D3240C9490180C940E2C0C94523193
:100190000C944B1B0C945E230C940C1C0C94BF39D8
:1001A0000C949E420C9432210C94AD390C941D3267
:1001B0000C94AB3D0C94F1380C94E13E0C94E7198F
:1001C0000C9479390C94A33D0C942A170C94641860
:1001D0000C944B2E0C94733D0C9425410C94992057
:1001E0000C94493E0C94BE250C9442300C946C1A2D
:1001F0000C9428270C94DD250C94C33C0C947C3A79
:100200000C94F5310C9451350C94FD410C941E4224
:100210000C94FD1B0C945D380C94433A0C94253BD4
:100220000C944E230C94091C0C94372C0C94DF3E38
:100230000C94E4190C948C260C94E7360C948630BC
:100240000C942D280C9425250C94543D0C94C53405
:100250000C943D2F0C94D6200C9478360C94CB3B08
:100260000C94A9380C94E33A0C9400240C94D926ED
:100270000C94E23C0C94E3160C94AD3B0C94353199
:100280000C94D2450C94763C0C9421210C94EC39BE
:100290000C9462250C948F3E0C949F250C94F520B1
:1002A0000C9455260C942A330C947B3B0C94F63713
:1002B0000C94901B0C945B270C94E0350C9429173C
:1002C0000C942A210C94E61A0C94EB350C94FF3E06
:1002D0000C94912D0C94FC270400000404040404E5
:1002E00000000404040404000000000404000000F2
:1002F00000040000000000000004000000000004F2
:1003000000020000040004000004070404000004CC
:1003100004040000020200000002040700040004BC
:1003200004000004000202040404040400000400A9
:10033000040404040404040004000203040004048C
:10034000000400040000040004000000000000009D
:100350000000010002010247030C1C020000010022
:100360000000FD1B03000001000000091C04000048
:10037000010000004B1B05000001000000901B065F
:1003800000010001B312A31B070000010000001CC4
:100390001B08000100014603CF2A090000010000EC
:1003A0000029170A00020101AE124F180B000301C9
:1003B0000343032A170C00020102410364180D00D5
:1003C00002000247032A330E000200029A1290181C
:1003D0000F0003000343036B1910000200024103E6
:1003E000031911000500053C032119120002000247
:1003F0009A12C631130001000146031D3214000297
:1004000000024103F53115000200029A123531163F
:10041000000400043803C534170005000533032F1A
:100420003318000100014603793919000800082B30
:1004300003EC391A000300032803433A1B000200AF
:10044000029A12E33A1C000200024103BF391D0068
:1004500004000492127C3A1E000100014603AD39EB
:100460001F0008000820038F3E2000020002410305
:10047000493E21000400039C12882122000300024F
:100480009F124E2323000300029F125E23240004C8
:1004900000049612AB3D25000100014603A33D2652
:1004A000000300031D03733D27000400031A037FAC
:1004B0004528000300029F12F4432900040004961B
:1004C0001232212A0001000146032A212B000300D9
:1004D00003170321212C00030003A1126C1A2D0025
:1004E0000600061103E61A2E000200029A123D2FA2
:1004F0002F000500050C0399203000040004A81209
:10050000F52031000200029A12D6203200040003C6
:100510000903D52E33000500050403762F340001AE
:1005200000014603CB3B35000400038312763C36C2
:1005300000050005FF020E2E370004000496127B12
:100540003B38000300031D03AD3B39000300029F4D
:1005500012C33C3A000300029F12543D3B000600C8
:1005600006F902E23C3C000300029F127F403D007E
:100570000300029F129B403E00080008F102B740B2
:100580003F00060006F90225414000050005EC0287
:10059000372C4100060006E602CC2B420003000384
:1005A00028030E2C43000100014603953744000246
:1005B00000024103A93845000200029A129736460C
:1005C000000100014603E736470002000241035DD7
:1005D000384800040004E202F637490001000146F1
:1005E00003F6354A000200024103B6364B00020012
:1005F000029A1278364C0001000146035B274D0039
:100600000200024103FC274E000200029A12BE259E
:100610004F00010001460362255000020002410321
:10062000D9265100040004DE0228275200010001EF
:1006300046032525530002000241031A26540003F5
:1006400000038F12B126550001000146034E2456C7
:10065000000200024103DD25570001000146035559
:10066000265800060006D802D324590003000328A8
:10067000038C265A000200029A129F255B00030099
:10068000029F129E425C00040004921246435D00E9
:1006900003000328031E425E000001000000D24553
:1006A0005F0000000500000078DA9D5A7B6FE3B818
:1006B00011FF2AAC81457B45925A922DDB29F68F9A
:1006C000C4F1EDA6BBC9E6E2A47B6851088A44DB0D
:1006D00042F43A51CAA3877CF7CE70F892ECEC0151
:1006E0003D6011911C0E39C379FC667CBF8FE2BA64
:1006F0001E9D8EBEE4595DF36674347AE8B23C8D7B
:100700009E7823B2AA14B0B44D9253F6974FCBE51E
:100710004F6C7A323919B387ACECDA2C17387B7D01
:10072000CFCED5F027E69FF8E1893FF6C2B1E74F7B
:1007300081555215455CA6C0E4F7519CE75512B7A8
:100740003CAAB254B0A4EACAF6E38764743AC71369
:10075000DB168E8AE2E491C12A4C3BEB93D0214810
:10076000534D505742FEC9CA8F1F3A5677791E75AE
:10077000356D7038FED6F1E6D5F0840B3C2275C39A
:10078000451BB559F22868D43671298AAC8DF4A975
:100790002C2B417E75FE0CE4C879DC4462D7B56928
:1007A000F55C8E4E7D14ADDC645BB891F07C7FAC63
:1007B0008F107516A9CF346EE3A8E171FA1AD1250E
:1007C00041D489B3EF250F26D3FD7DA3D37061A952
:1007D000CA38AFB651561AA915A7C0DE4089AA2952
:1007E000681839FAB3ECE4246FFACC7ABA9B86869F
:1007F00038CDB6591BE751D5B5830D4F71DE712940
:1008000022DFC45DDE4666A2885FA2B46BE2162CCE
:1008100047DED39B197E1CECA0ADEA1EAFA477B8CF
:100820006F0FDFA593C96C6ED4DA08A543C6F547F0
:100830003A315F53F3159AAF99F9E279FC6A1E1BBE
:10084000B46B35B77B99792FFA886D9C81D6767118
:1008500059F25CCA06726B1E22C91FED237A8641CB
:10086000E6274CBFDAC4F2CD92C21F2F2673CD1AF1
:10087000C8CCE3CEE6862C4F132FF4FC43548BF107
:10088000902A7ACEDA1D1842FBB04FCF709AEE87CD
:10089000FE64DF3BCF849F3E5BCB1051FF336A5F2A
:1008A0006BF96E4008B267B59E807B5A718ABA5B5D
:1008B000F8D3F14169A686AAE4559DBDF07C602B72
:1008C000D20B44F65FE0BAEB2070B411DA88E37B18
:1008D00082C314A8DEBED0D47A49FD5C1CB0BFE44C
:1008E00015FCD1F250D6B7EB86F608337B0639B14A
:1008F00037069F1B32C610D4664F3CDA65DB9D94E9
:100900003098BBF4E090DB9C1F7076B36635B80876
:100910007A3B75F038B4592D4585D87EFCF0578860
:1009200096417F2FBE3D9A63228CB905D6B1443BD8
:100930005BD80894880356CB043CB6FE7C2D93A864
:10094000EF152C29D268E828D3857302C7DC60AE86
:100950000E43656E2CCD1AFD493153125BAA2E173A
:10096000DC61EA5BC1DA1D6F8A0A42527D50A3EE58
:10097000B2556A6843445B245DDC18DB685EA2BD47
:1009800078C65A338996D7660527D1AC0BB70DEADE
:10099000C3AA151C2FE50F1DD873055971A147C0B7
:1009A000652B6D99DEC7336418E059D5A4BCC1F33B
:1009B000203F3514F77C4DF0DC642DDFA340A325E8
:1009C00042B80A2F78B3E565F21A6180844BC014EF
:1009D00005CB6857157C2F7D89B8A85D07506393B8
:1009E000BCFAE90DAE6E0334896B74DC64DB2D6FE9
:1009F00050085151F4F0A7F670993CE14E71CB8D3F
:100A0000827C70CE4D0669095C3A221DB2A4492849
:100A1000B41E8DB6E0CDF29EA064359234102A68E3
:100A2000D8D5F80AE087472315E32301E74560811D
:100A30002685E137E939F40664F804CC49B08A0C1C
:100A40009E03C3123D86B2072E7D89E15C947395A7
:100A500036174488410762A01BD260280312088B16
:100A60007FF19DB820A39D787697787637828B1991
:100A7000B74A63C7001DA3EFB10A27C44A59C5503E
:100A800090090A92F2B2CD36805A361B3851BAA775
:100A900049E670139D1060AD7BC740DA1D1CB8ABF2
:100AA000F2540E7EFCE48C374DD5338139843C1DE5
:100AB000CDA5D6CDE34F7D67A5AB536B1804C776A4
:100AC0009D23CB14CC982C6880917AE609C70DE958
:100AD000A4C57536D4CD7D4BD0034D0346E17C4093
:100AE000376414CE0CC11057FD9FBE5558DF52C954
:100AF000C68E00536E61E38E278F0E1A0B3C7D87E6
:100B000001183337A82B085FC3F39DB03CD50C7A8E
:100B1000F065A8D4718F6AA889D9422F0FB1CA8015
:100B2000CF6C3624DC63156A8A019E19DE6848277B
:100B30004D77105DE6E6B83E7419DECAEB93EDDD45
:100B4000C9483FC02E433E9301DD1E23639B7BC9F2
:100B5000FF9D6202A31BE4FA6C43CFBD30B64B9CF1
:100B6000074A0289CD731ECA87EF1CE2985DCFEA5F
:100B700068007918C273EA185D488774FC10A837BA
:100B800067542E08F3CC96010633E4C6D2216C4D8F
:100B90003431267D6651296F28CFE908B693D110EC
:100BA000FE669049403512FE819626EA53EEA70470
:100BB000323C0F36C0AB228D2BC3A022817B077B3A
:100BC00044520289190DCF1E80844D216D2AF98B64
:100BD000BA02C01A139DB386329F47445A1F7F0042
:100BE00046412B78158B0BB1C6DC587FB78172E17B
:100BF000119D136A9DD560A2577B290BA754CA2A61
:100C0000AA943BA90BB684764B3F5F1599A87496BE
:100C10002A2A911D828A9ADD10BA854A9CF7050915
:100C2000C066088CFE28A74FE77DAAC3297D3A43FA
:100C30002A093B23C40D905F3204F1C671BC85259F
:100C4000906805CD97921B33B9CEC97CB0030E5680
:100C5000A0B1A76B998B0D56A04407A6A676A31248
:100C6000D1A90FB800D8C4DCD2B52E18E575D528A7
:100C70002444EE2BC7C64AF84B9D35BC87BB16866D
:100C8000D3400A9708944269F790233B4E3079D3BA
:100C900000173B2F6717CBE8EAEC5784AD88BFCF2E
:100CA000EFD7D1CDE5F51A63DAE87474731E1CDD55
:100CB0009CFBF0CF1B398BEDB35CBC181FDD5CE0F7
:100CC000C2F2EBB7E597E8E7DBD52FE82F63F9DF52
:100CD000D1E86A790F54715BF06DEC4FC33110DECF
:100CE0007CBFA2D37C4C55B7ABE5EAF29FABE8FBE7
:100CF000E5F5C5B7EFF86C3E4EAE57B73049B7E0F3
:100D00004D16E778D60ACE5AE159B07A79F6353AD7
:100D10003FBBBF403674D4FAEEEC6E1DADEFAFD6DC
:100D2000BFC0CA7A852B214EAF6E6E56B7D1B79B26
:100D3000BBCBABCB7FAD2EA2FB6B9C2330A557F179
:100D40006F74FEEDEE73B4BAF8045BBD3784B91D61
:100D5000006F591ACA06955B14E318709A045C5226
:100D60004DE337026E40846B523B38D7AB9C71E544
:100D7000EBE5DABF0041E170F80C2E3ED361E05C98
:100D8000B87A73361E9DFE7B7C34FF0F28EA1CBFA9
:100D9000E7F4BDC46F88437270810340DA72B0C259
:100DA00041E0D3E0671C4CD4FE4F72A0187CC6C152
:100DB0005431F8070E666ACF17798CDAF3550E7046
:100DC000CF5B2F3AA9DBC75E1004F2F2B1988E27F1
:100DD000B3546AA068C3B917CAC2043FFD504800A3
:100DE000DFE67C3AF6FC077809C54C69C7680C93C6
:100DF0005E86BED140FD1465A9B24626AD7643108D
:100E000089FA3E67B96C95315D5BA414CA9771C9C4
:100E1000CAAA65E0854C541B88BACF05855C269D1F
:100E2000893DEF32F826A710AC06B786932857E81D
:100E3000BD9DE0322D371EDB540D03FBFCBB1E674E
:100E4000025753392FA7547C82AD7F6E315541E153
:100E5000BC850B01A28E5BA48ED535A94D40E592D1
:100E60002216488ABE48451DCDCAAC2659C34D79C5
:100E7000C974256DF683372CA949CAEAB8015F20E9
:100E80003C2EEB25BDD07048AEA295ADD29F6390AD
:100E900037656DC56408C30E948C3CD436F9FC2BC1
:100EA00042426C65FD4DB5B27AAA66DEF1841AAA9B
:100EB00097FE925D9F2DBF1020C511B8D7ED9D9E66
:100EC0001BBB73B7ABB30BB580510A17EE2820528A
:100ED00000BC24BCC17423D2F65329ED530ED35465
:100EE000AA252CEB433B0764287F5C70C00CD426FA
:100EF000D08B45F5C4B50A18769230BED965D37744
:100F0000329D262AF3F6D655BD62CE0F9CABC3ABFD
:100F10003172012CDCF52C36887414C5D0EBCC2B47
:100F20002C889EAF364EE67D02599E59995441A4B5
:100F3000297A60CFE502AF7115BFE08BCDB54229AC
:100F4000A15F410919C313F2328104ADAD04173218
:100F500081262CA0D248BB1CFB14B019910C53392C
:100F6000429A007FE2F8120862DEDFB08B9B547A6F
:100F700098A2C636D415AA5F823B065FCD26AF9EE7
:100F8000091D5E836BC58CC4419F96110E2B44775F
:100F9000019C4D2D2CFA0B59591386A2642B974AAC
:100FA000BCA99DF6642E312E5737D5169459C0D55D
:100FB00063946D0318046E09CAE6182D1030DC72B4
:100FC00025147A08BA331C83AA866740F7C14EF805
:100FD000DA10EC69873D67790EA939017EBDC6211B
:100FE000810DBBD368E8073BB041BF06D7A7379454
:100FF00017408AACE80A3DA79D0374B9D6CD41F9E4
:1010000043033093C142063EF73787B58A1E6D55BC
:10101000B14D2CA523C9B02B73E79A14AA0C08650F
:101020003B9432E19DD407EE045422B80CE6F7A5B8
:10103000E86A44269C22890CDF9854BFC76DB24BE6
:10104000AB2D69F14FD461913FE040B2EBCA4760EC
:101050008C6188FAFBCEBCB00BC0857C04E2948026
:10106000F08A1E0C9847B044D0FBE2EF2A9872D168
:10107000F0E5E99DBD0D95147695BC8620B59945A2
:10108000F7ECEFB1BD5D8ABB559943A87E822BC5B5
:101090000FB98EC046A1D40B62AD8E65085710FC07
:1010A000E66C7028685EFE666582BFFA252BA54651
:1010B000A0C07E0D865A32B90496E56D0CDA94A173
:1010C00049AA3E8F1B4C78C1611C87EF4DDE810D14
:1010D0005F9523C8F710BD423EDD6B8A624205B0C2
:1010E0001578F3E954A66D350865DEA6413895C636
:1010F0000383309CC177F026714B02EF02FB47F867
:101100000BDEA79BAF4FC148166135441C4E3FD83C
:10111000E92649AF489791223A54051E6370D13FA2
:10112000BCF5B6C44E0B84C91502F9C708C9A9DAC3
:10113000B398FAD8372D7786E04A7E49D82DDB8CD4
:1011400038A7DF509634109522535EE276D919976E
:10115000BD951F5D5C6D511F91733E0637DDDC153B
:10116000E03FA6577BEC36477BAC771594E4DBFD7C
:1011700043DCDE2BEE0F6C9F32D2BA767A1372AC60
:1011800055B3B0AD4087D6F404A9543A415A6C1A0D
:101190005AA5B021E8527AC188F46EEBC591407728
:1011A000085D8D044EDF4F2945D7A15D92C8E62624
:1011B000CA874E0FF7743BE5C7BEACAD3104003AA9
:1011C000842AD32DF70466F532E183CEE1B1F22A09
:1011D000B3A7D795B11D08D537D1451555EF2ECBFF
:1011E000874E268994DA6A00D0200A443A8B09A5F2
:1011F00017046BC2C65FDD077C4789DEA19A7EEFCC
:101200002DDDBE4DEF51FD7E0DFD4746205B1E08D6
:10121000EF24A85D4C09510B6BBCA22BD41FF11B12
:10122000BD5530B675F1A068A6266D867C2783581B
:10123000D27FD4832EDE5136512F6DA3DB0119B03E
:101240008A2679676E7D6CAD2D894DB17EB829ED0A
:1012500086031F83A584D0F4AB5CD75B5D4030531D
:10126000FFAF0204B3A7F189179C8CE15117C75B4C
:101270006FF6304FF82409476FFF038929F618D716
:101280000B0000040207040000020002040007042F
:101290000400040000040400000004040404070423
:1012A0000704000204040400040400040401070409
:1012B00000040200000000000000060002027600A8
:1012C0004003831275001D068612740040038C12C1
:1012D00073000F038F12720014049212710017042E
:1012E000961270000A029A126F0040029F126E005E
:1012F00040039C126D0040029F126C0040029F123E
:101300006B001003A1126A001104A41269001104F9
:10131000A81268000D02AC1267000B01B312660040
:101320004001AE1265001204AF1264000B01B3124B
:1013300063001002B41262001503B61200004002EE
:10134000B91261000E02BB1260000901BD125F00FC
:101350000600000020002300260029002C002F009A
:101360003200000100000301060109010F4700449B
:1013700000450080013548004400450020010D88EB
:10138000008000810080000E8A0080008100200023
:101390000F8C008000810008000CB300B000B10089
:1013A00080033EB400B000B10020032398009000F9
:1013B00091008000249A00900091002000259C005C
:1013C0009000910008003BA800A000A10080003C14
:1013D000AA00A000A10020003DAC00A000A10008D0
:1013E000005B28012001210180005C2A01200121ED
:1013F0000120005D2C0120012101080028292A2B51
:101400002C2D2E2F505152535455565711241FBE78
:10141000CFEFD1E2DEBFCDBF00E00CBF14BE0FB6F0
:10142000F894A89580916000886180936000109284
:1014300060000FBE12E0A0E0B2E0ECEDFDE800E0DD
:101440000BBF02C007900D92A033B107D9F723E07C
:10145000A0E3B2E001C01D92A23AB207E1F70E94F8
:10146000BF290C94EC460C940000CF93DF93CDB7CA
:10147000DEB7A1970FB6F894DEBF0FBECDBF0E94B6
:10148000AC296B017C0180912602882311F40C9415
:10149000BF120E94AC29C61AD70AE80AF90AF894C2
:1014A00080912602882361F08FEF8093270280933A
:1014B000260278940000F894809126028111F9CFD9
:1014C00078940E94AC2997018601060F171F281FE8
:1014D000391F0A8F1B8F2C8F3D8F81E0809326024E
:1014E00080917A02882309F443C010927A028FEF28
:1014F00089838E010F5F1F4F36E0E32E33E1F32E19
:101500006DEA79E3C8010E94EB2A6C01892B81F115
:10151000D60156968C9182FFF3CF0E94AC29F894A5
:10152000F60137892689422F4B7F468B78949F930B
:101530008F937F936F931F923F9321701F922F93EE
:1015400089811F928F93FF92EF920E945C1C2DB7AE
:101550003EB7245F3F4F0FB6F8943EBF0FBE2DBF7E
:101560006DEA79E3C8010E94EB2A6C01892B81F6B0
:1015700080917B02882339F110927B028FEF89835F
:101580008E010F5F1F4F20E0E22E23E1F22E69E46F
:101590007EE3C8010E94EB2AFC01892BA1F0958D06
:1015A000868D9813F4CFF894858D968D891711F454
:1015B0000C94EA13789469E47EE3C8010E94EB2A54
:1015C000FC01892B61F780916B02882321F1109235
:1015D0006B028FEF89838E010F5F1F4F9EEEE92E06
:1015E00092E1F92E66ED70E2C8010E94EB2A0097A5
:1015F00091F0DC0158962C912F3FA1F7F894FC0153
:101600002685211186C7789466ED70E2C8010E9494
:10161000EB2A009771F780917602882309F440C085
:10162000109276028FEF89838E010F5F1F4F88EE35
:10163000E82E82E1F82E66E77FE2C8010E94EB2ADD
:10164000009771F1DC011E962C911E9723FFF3CFBA
:10165000F894FC012685277F268778949C01265ED6
:101660003F4F3F932F9350968C9186958695869504
:101670001F928F9389811F928F93FF92EF920E9406
:101680005C1CEDB7FEB738960FB6F894FEBF0FBEE0
:10169000EDBF66E77FE2C8010E94EB2A009791F652
:1016A00080917C02882309F44BC010927C028FEF5A
:1016B00089838E010F5F1F4FBCEDEB2EB2E1FB2E35
:1016C0006DEA7BE3C8010E94EB2AFC01892BC1F182
:1016D000848D80FFF5CFF8949481258136814781F0
:1016E000548965897689A789B08DD18CC28CB38CD9
:1016F000848D8E7F848F7894BF92CF92DF92BF9338
:10170000AF937F936F935F934F933F932F939F93E9
:1017100089811F928F93FF92EF920E945C1C2DB7DC
:101720003EB7205F3F4F0FB6F8943EBF0FBE2DBFB0
:101730006DEA7BE3C8010E94EB2AFC01892B41F68C
:1017400080917502882309F456C0109275028FEFBC
:101750008B87AE01455F5F4F1A01FCE09F2EA7E02B
:101760008A2E6EE07CE2C1010E94EB2A5C01892B8B
:1017700009F441C0D50159968C91599780FFF1CF5A
:10178000F894F5014480558066807780818D8E7F46
:10179000818F789458968C91813009F4F0C308F4C5
:1017A000CEC3823009F41AC48330D9F6CB841982AF
:1017B0001A829E012F5F3F4F42E061E0F50184896C
:1017C00095890E94B52109811A81102701271027C8
:1017D000F02FF670EF2E20E030E0B301A201C5013A
:1017E0000E94822C6EE07CE2C1010E94EB2A5C0127
:1017F000892B09F0BFCF809177028823F9F01092EE
:1018000077028FEF8B878E01055F1F4F180149E02C
:10181000B42E0A50110952EFC52EDD24DA9406C009
:10182000D7011E968C911E9780FD18C467E976E358
:10183000C1010E94EB2A7C01892B91F780917802EB
:10184000882329F1109278028FEF8F87FE0131965D
:101850004F012E01F7E04F0E511CE8EA6E2EF7E023
:101860003F2EAFEA2A2E5E0108E0A00EB11C06C092
:10187000D7011F968C911F9780FD67C466EF77E3B1
:10188000CE010F960E94EB2A7C01892B89F780916B
:1018900079028823D1F0109279028FEF8D87FE01B3
:1018A0003D966F0162E7962E74E7B72E06C0D7010A
:1018B00052968C91529780FDA9C468E776E3C601E1
:1018C0000E94EB2A7C01892B91F780916C0288237E
:1018D000D9F010926C028FEF8D878E01035F1F4F3E
:1018E000680130E7932E42E7B42E06C0D701529626
:1018F0008C91529780FD25C56EEB75E2C6010E9462
:10190000EB2A7C01892B91F780916D028823C9F025
:1019100010926D028FEF89838E010F5F1F4FEE24AF
:10192000E394F12C170106C0DC0119962C9119974C
:1019300021116DC568E277E2C8010E94EB2A009789
:1019400099F780916E028823B9F010926E028FEFA2
:101950008B878E01055F1F4F180106C0D801519675
:101960008C9151978111B8C461EB76E2C1010E945C
:10197000EB2A8C01892B91F780916F02882309F45F
:1019800092C010926F028FEF8B87FE013B961F0172
:101990006FE975E2C1010E94EB2A8C01892B09F4E1
:1019A00082C0D8011E968C911E9780FFF1CFBB8418
:1019B000AE014F5F5F4F68E11C968D919C911D9722
:1019C0000E944F4289819A8198278927F894F801CB
:1019D00096859E7F9687789483FFDACFC388D12C33
:1019E0007601B4E1EB0EF11CE00EF11EA70160E000
:1019F000848595850E944F42A7014E5F5F4F61E04D
:101A0000D8011C968D919C911D970E944F42F80120
:101A100083898C5F838B4801FCE48F0E911CD40179
:101A2000AC90A2FE36C0F7012181828190E0A0E057
:101A3000B0E0BA2FA92F982F8827A22B2381822BC1
:101A4000F801EC0DFD1D24896C017D01F22AC11401
:101A5000D104E104F0E1FF0608F0F9C50E94AC29C9
:101A6000A1FE02C00C941D15F801E15BFF4F408000
:101A70005180628073804C145D046E047F0410F406
:101A80000C942F158A2D8D7FF4018083D8015396F5
:101A90008C9190E0C0970CF47BCF6B2DC8010F9612
:101AA0000E94814375CF80917D02882309F47FC015
:101AB00010927D028FEF8B87FE013B961F017724EA
:101AC0007A948E010F5F1F4F198B088B9E012A5F3E
:101AD0003F4F3B8B2A8BAE01475F5F4F5D8B4C8B3B
:101AE0008DE1482E25E0622E33E0532E6EE172E444
:101AF000C1010E94EB2A6C01892B09F458C0D60160
:101B00001E968C9182FFF2CFF894F60144815581A4
:101B100066817781F1881686118A7894808591850F
:101B2000A285B3858A019B01081B190B2A0B3B0B6D
:101B30000E8B1F8B288F398F86010E5E1F4FD601AB
:101B4000FF2089F056968C91F601E80FF11D778AF7
:101B5000108E118E8D5FF601868B813310F5FA940D
:101B6000D601F110EFCF1F961C91112309F474C117
:101B7000113009F4ACC1123009F4BBC5133009F4BB
:101B80004AC6143009F48DC6D60156968C9190E061
:101B9000C1970CF4ABCF6B85C60142960E9481437E
:101BA000A1CF6B85C8010E948143FA94D9CFA89533
:101BB00080917E02882329F080E480936000109257
:101BC0007E0210913F03112309F46EC00091300290
:101BD00000FD12C0153008F467C0D0907F02BD2C04
:101BE0008BEF8D0D8C3308F400C5EEE7BE1609F4BB
:101BF00091C7016000933002412F50E06EE770E022
:101C00008FE792E00E94BD46009739F00E7F009367
:101C100030028F57924011E0180F01FD0CC0902F39
:101C200092609093300282EA96E09F938F930E9495
:101C30005C1C0F900F90D12ECC24CA9420E00D2D67
:101C400010E019C0822F90E04E2D50E0481B590B38
:101C5000B801680F791F61587D4F81589D4F0E94D0
:101C6000D346109226022E2D8FB7F89490913F0301
:101C7000F91661F08FBFF0903F03EF2CED1811F7CC
:101C80008FB7F89490913F03F912F4CFE0923F039D
:101C90008FBFF1E0CF1208C082EA96E09F938F9346
:101CA0000E945C1C0F900F900E94AC296B017C017C
:101CB0000A8D1B8D2C8D3D8D601B710B820B930B40
:101CC0008090390290903A02A0903B02B0903C0282
:101CD0001FEF811A910AA10AB10A809239029092EB
:101CE0003A02A0923B02B0923C02409035025090E2
:101CF00036026090370270903802460E571E681EFA
:101D0000791E4092350250923602609237027092EC
:101D100038026115710521E08207910508F035C48C
:101D20009B01AC010E943C46DC01CB0181509F4FDE
:101D3000AF4FBF4F892F9A2FAB2FBB274091310256
:101D4000509132026091330270913402840F951FDA
:101D5000A61FB71F84179507A607B70718F48FEFBC
:101D60009FEFDC018093310290933202A093330203
:101D7000B093340240914E0250914F026091500254
:101D80007091510297018601041B150B260B370B2E
:101D9000B901A8014115544B644C744008F473CB4D
:101DA000BF93AF939F938F937F926F925F924F9267
:101DB000BF92AF929F928F9286E393E19F938F930E
:101DC0000E945C1C2DB73EB7225F3F4F0FB6F894C0
:101DD0003EBF0FBE2DBF80914E0290914F02A09149
:101DE0005002B0915102C816D906EA06FB0698F4D3
:101DF00080914A0290914B02A0914C02B0914D0209
:101E00000196A11DB11D80934A0290934B02A093AD
:101E10004C02B0934D02C0924E02D0924F02E0921B
:101E20005002F0925102109231021092320210923E
:101E30003302109234021092350210923602109240
:101E40003702109238021092390210923A02109220
:101E50003B0210923C0217CB82E389831A820E94D4
:101E6000AC294B015C019E012F5F3F4F42E061E0D6
:101E7000F601848595850E94B5210E94AC29DC017C
:101E8000CB0188199909AA09BB0981329340A105A0
:101E9000B10508F046C0898187FD64C32A81E22E1E
:101EA000F12C9701220F331FE82EF12CC701982F38
:101EB0008827990F7901E82AF92A950184014E892A
:101EC0005F89688D798DC6010E94A7435DCE8FE73B
:101ED00089838EEF8A830E94AC296E8F7F8F88A3BF
:101EE00099A39E012F5F3F4F42E060E0D6011C9610
:101EF0008D919C911D970E94B5210E94AC294B01A8
:101F00005C01DC01CB010E8D1F8D28A139A1801B46
:101F1000910BA20BB30B81329340A105B10508F4DC
:101F2000A4C3D60156968C91F601E80FF11D778A6D
:101F300092E0908F118E8D5FF601868B25CECB843B
:101F400019821A821B821C829E012F5F3F4F44E040
:101F500061E0F501848995890E94B52169817A81C2
:101F60008B819C810E944C46F62FF770EF2E8B01DF
:101F70009C01B301A201C5010E94822CF2CB0B850A
:101F80000E8B99821A821B821C829E012F5F3F4F0B
:101F900044E061E0848995890E94B52169817A8154
:101FA0008B819C810E944C466B017C01BFE0B98310
:101FB0001A829E012F5F3F4F42E061E0F501848964
:101FC00095890E94B521970186013327CE88EA8042
:101FD000B301A201C5010E94822CC3CBCB8481E056
:101FE00089831A821B821C829E012F5F3F4F43E030
:101FF00061E0848995890E94B52169817A818B810C
:102000009C810E944C46BB27A92F982F872F8C01BB
:102010009D01222733270E8B1F8B288F398F8982B2
:102020001A829E012F5F3F4F42E061E0D501549636
:102030008D919C9155970E94B5218A81982F9C7F04
:102040008E898170E92EE82A0E891F89288D398DA5
:10205000B301A201C5010E94822C83CBAB84F8019D
:102060002B2D11922A95E9F7C982980149E061E088
:102070001C968D919C911D970E94B521D701539676
:102080008C9190E0FC017496EE0DFF1D3B81232F97
:10209000207FE1F0203FD1F0D482D382D282D1825E
:1020A000F701E80FF91FD48AF70183898B5F838BCF
:1020B0008F3208F008C3D7011E968C911E978E7F31
:1020C0001E968C93C7010E948A38B0CB2D81422F77
:1020D000407F09F0B8C25F81452F407F11F0403F3B
:1020E000D9F648854039C1F649854F77942EB0E23C
:1020F000B41790F2D701A80FB91F4A8154964C9398
:102100008C8181838E818283852F90E03F71AC0129
:10211000440F551F42955295507F5427407F5427B6
:10212000342B3383880F991F880F991F80762F7166
:10213000822B8483D70153968C9153978B5F539650
:102140008C938F3208F4C5C2BFC27F8455968C91A0
:10215000C82ED12CB6E1CB0ED11CCE0CDF1CF70162
:102160009685911134C2D401E32D1D92EA95E9F7C9
:102170002B861C866982D70150968C91813009F498
:102180002EC4940147E061E0F701848595850E94A3
:10219000B5219E01255F3F4F42E061E0D7011C96CB
:1021A0008D919C911D970E94B521F70180891C8516
:1021B000012F813009F4CBC30F731074FE013296E6
:1021C000D60181918D93EA15FB05D9F7D701559674
:1021D0008C9155978A5F55968C938E3208F09FC3E9
:1021E000112331F0F701838994890196948B838BB5
:1021F000002309F4F4C1D7011F968C911F978E7F9D
:102200001F968C93C7010E943E3838CBAD84509600
:102210008D919C915197C09770F1B9828701085EAA
:102220001F4F20E3AE014F5F5F4F61E0F7018485F0
:1022300095850E9469440E94CA1680E3D70157968B
:102240008C93579750968D919C915197C09751962A
:102250009C938E9350976A2DC70143960E948143A9
:10226000F70180899189C09778F11092260281E068
:102270008093790222CBD7011C968D919C911D975A
:102280009B868E010F5F1F4F22E0AE01455F5F4FBF
:1022900061E00E9469440E94CA1689818F7190E0B2
:1022A000982F88272A81822BF701268537852817C2
:1022B000390710F497878687D70151969C938E93A0
:1022C0005097C0970CF0A9CFF70182898E7F828B3F
:1022D000C7010E94DD27F1CAFB8419821A821B8282
:1022E0009E012F5F3F4F43E061E01F968D919C91CF
:1022F00050970E94B521F801118A29818A8190E0C6
:10230000A0E0B0E0BA2FA92F982F8827A22B2B810D
:10231000822BA7FDBF6FF8012789E20FF11D808F87
:10232000918FA28FB38F84E0820FD80157968C9340
:10233000803308F419CB6F2DC80143960E94814366
:1023400013CBAD8450968D919C915197C09770F1AD
:10235000B9828701085E1F4F20E3AE014F5F5F4FD8
:1023600061E0F701848595850E9469440E94CA1640
:1023700080E3D70157968C93579750968D919C91F7
:102380005197C09751969C938E9350976A2DC70191
:1023900043960E948143F70180899189C09778F123
:1023A0001092260281E080936C02A6CAD7011C9687
:1023B0008D919C911D979B868E010F5F1F4F22E090
:1023C000AE01455F5F4F61E00E9469440E94CA16FA
:1023D00089818F7190E0982F88272A81822BF701BD
:1023E000268537852817390710F497878687D70100
:1023F00051969C938E935097C0970CF0A9CFF701FC
:1024000082898E7F828BC7010E94DD2775CAB980C1
:1024100018969C901897E92DF0E05296CD90DC909C
:1024200053975496AC90549755964D905C90569710
:1024300057963C91779640E050E0BA01EB2CFA2C8D
:10244000792CF894D2013C93000000003C93D60113
:102450002C917894440F551F661F771F2F21812CD4
:10246000912C54018394211103C0812C912C54018F
:10247000482959296A297B29319718F7BE2C972CAE
:10248000F894FC012185118678946A017B0104C0CF
:10249000F694E794D794C7947A94D2F7E7FE02C0F3
:1024A000FF24FA94210101C0440C9A94EAF74A945B
:1024B000512C612C712C4421552166217721441621
:1024C00055066606770609F430C220E030E040E0A9
:1024D00050E8DC011E962D933D934D935C935197EC
:1024E00060E850E040E030E0DC015C962C91FC01BB
:1024F000E20FF11D358F468F578F60A32C5FFC01D3
:10250000248F203308F416CA6B2D48960E9481430D
:1025100011CA318D308F7894AC01415F5F4F5F936A
:102520004F931F922F93FC0187891F928F9389816C
:102530001F928F93FF92EF920E945C1C2DB73EB7C3
:10254000265F3F4F0FB6F8943EBF0FBE2DBF4AC85F
:102550002A893B89E217F30709F0CFC19E819817BA
:1025600009F459C2D60156968C91F601E80FF11D77
:10257000778A508E118E8D5FF601868B05CBCA8EC1
:10258000DB8EEC8EFD8E0C946D0A6115710530E1C9
:102590008307910508F0E3CB8B019C0101501F4F8D
:1025A0002F4F3F4F5527432F322F212F0E943C465C
:1025B000DC01CB0140913102509132026091330233
:1025C00070913402840F951FA61FB71FC3CB9130A3
:1025D00009F4CCC18A5F858B8E3208F09EC11092BF
:1025E0002602F1E0F093780249C9C09080028C2D58
:1025F000807F803109F0F9CA1D1508F455CB8D2D67
:1026000090E0FC01E258FD4F20812E3709F0EDCA21
:10261000FC01E458FD4F1F01FC01E358FD4F908180
:10262000D1018C91292F30E07901F82A6DEF6D0DE1
:102630008FE792E00E94C229E816F90609F46CC2FD
:10264000B0907F02D2CA403F09F026CD44CDD401DC
:102650001C92F801E25BFF4F608134978081918189
:102660000E94AE3AF801838914CA80EC89831A82E9
:102670009E012F5F3F4F42E061E0D6011C968D9195
:102680009C911D970E94B5212981EA80922F9E2559
:10269000892F82958F709827892F8695869589270F
:1026A000982F9695892780FDAAC126FFFEC1F601C5
:1026B0008689E80FF11D778A608E118E8D5FD601B5
:1026C00056968C9361CA912C6A2DC7010F960E9471
:1026D0008143BEE1B91508F058C3F7018189928999
:1026E0000196928B818B1092260281E08093770273
:1026F0009DC8D6011C96ED91FC911D971481F28026
:10270000038140E06F2D702F812F0E94AA2A0E9422
:10271000AC294B015C01B0E18B0E911CA11CB11CDA
:102720000E94AC292B2D86169706A806290B27FF99
:10273000F7CFF89441E06F2D702F812F0E94AA2AC5
:102740000E94AC294B015C0178948AE0E889F98900
:1027500011928A95E9F784E8898383E28A839E014E
:102760002F5F3F4F4AE061E0D6011C968D919C910E
:102770001D970E94B521FE01339685E0919189272E
:1027800028E030E004C0880F2150310939F087FF7C
:10279000FACF880F842521503109C9F70C891D898A
:1027A000E017F10759F7809590E02A8530E082170D
:1027B000930709F0D7CE898584FF66C08B8187FD9A
:1027C0007FC1D60156968C91F601E80FF11D778AEC
:1027D00094E0AFCB548965899089218932894389F6
:1027E0008F5F858F78946F935F934F933F932F9371
:1027F0009F9389811F928F93FF92EF920E945C1C9E
:102800004DB75EB7465F5F4F0FB6F8945EBF0FBE21
:102810004DBF0C94C70A83E889831A821B820E94E9
:10282000AC294B015C019E012F5F3F4F43E061E00B
:10283000D6011C968D919C911D970E94B5210E94F6
:10284000AC299B01AC01281939094A095B094901E6
:102850005A0131E2831633E09306A104B10408F073
:1028600060CB3A812B81532F5227452F42954F70D1
:102870005427452F469546955427452F469545277D
:1028800040FDB0C021FF00C1D60156968C91F601E3
:10289000E80FF11D778A608E118E8D5FF601868BB1
:1028A00073C986E0EAE2F2E0DE01119601900D9232
:1028B0008A95E1F70E94AC294B015C019E012F5FD4
:1028C0003F4F46E061E0D6011C968D919C911D978B
:1028D0000E94B5210E94AC29AB01BC01DB01CA01F9
:1028E00088199909AA09BB0981329340A105B1054C
:1028F00008F017CBFE01339680E09191892728E0FC
:1029000030E005C0880F2150310909F421CE87FF3E
:10291000F9CF880F07E08027F6CF00E010E0672DA1
:10292000C70141960E9481435BCC21FD12C0FC018E
:10293000468457846088718841145104610471048D
:1029400009F01EC23C2D4D2D5E2D6F2DCDCD007298
:1029500034CC20E030E040E050E4DC011E962D93C2
:102960003D934D935C93519760E4BBCDF8E2FE87B5
:10297000D70150968C91813009F484C0BFE2BD87A5
:10298000840126E0AE01425F5F4F61E0F70184857C
:1029900095850E9469440E94CA168E01055F1F4FEB
:1029A00021E0AE01435F5F4F61E0D7011C968D913E
:1029B0009C911D970E9469440E94CA16F701808964
:1029C0001B85012F813009F45BC00F731074D40193
:1029D000F6018D9181934A165B06D9F7F7CBB8EED5
:1029E000B983CFCBD60156968C91F601E80FF11D35
:1029F000778A108F118E8D5FF601868BC5C8F60120
:102A00008689E80FF11D778A508E118E8D5FD60171
:102A100056968C93B9C88D8181FD36CFEB80FC80B2
:102A2000FE24EF24FE248A019B014E895F89688D74
:102A3000798DC6010E94A743A7C8F801ED5AFF4F40
:102A40004080518062807380292F6415750586054A
:102A5000270927FD02C00C94340D0C94460DF80193
:102A6000ED5AFF4F60837183828393833697608131
:102A70003397808191810E94AE3A80E00C94440D9E
:102A80000072A4CF6E867ACF432F50E0542F442794
:102A90002C7F7A01E22A8B019C014E895F89688D27
:102AA000798DC6010E94A7436FC8822F90E0982FAE
:102AB0008827990F990FB4E0EB9E70011124FBC990
:102AC0000E891F89288D398D801A910AA20AB30AAE
:102AD00011E5811615E59106A104B10408F041C184
:102AE0002C8130E0220F331F90E0982F8827990F18
:102AF000822B932BD60156963C91F601E30FF11DE4
:102B00002F8126952F73278B808F918F3D5FF60144
:102B1000368B3AC811E08FC8802F8D7F80933002AA
:102B200080910802C81229C181E08C0D8F708061EC
:102B300080930802B1E82B16B2E03B0609F008F4D6
:102B4000FAC001E812E080EAE82E86E0F82E99E06B
:102B5000C92E8DB69EB6D8012C9127FDB4C00F5F4B
:102B60001F4F30E02115310509F404C1F7018591AB
:102B700094912817390708F0FDC0A901440F551F8B
:102B8000440F551F440F551F420F531FFA01E55BB9
:102B9000FC4FE4918DB79EB7A4E0EA9F801991099C
:102BA00011240FB6F8949EBF0FBE8DBF0196FA0197
:102BB000E35BFC4F6491FA01E25BFC4F4591549159
:102BC000FA01460F511DBA01AC019F8A8E8A9F8F70
:102BD0008E8F6E177F0709F488C02016310608F41F
:102BE0006FC0A491A53028F1A73009F069C0280171
:102BF000BFEF4B1A5B0AD8016C908201060D111DC4
:102C00002016310608F45CC0712C812C912CDA015D
:102C10006D927D928D929C921397612C712C1496DB
:102C20004D925D926D927C921797485F5F4F3196FF
:102C3000D0CF5A0184E0A80EB11C48019FEF891A39
:102C4000990AD8011C91912F9F77492E512C612C04
:102C5000712C012F0076003609F440C017FF6FC0B9
:102C600084010F5F1F4FD80111978C91440C551CA4
:102C7000661C771C440C551C661C771C440C551CA8
:102C8000661C771C440C551C661C771C440C551C98
:102C9000661C771C440C551C661C771C440C551C88
:102CA000661C771C982F9F77492A87FDDACFDA01B7
:102CB0004D925D926D927C921397A501319689CFCA
:102CC00087E00E94551C2F77B0E82B9F90011124BC
:102CD000F8018181282B0E5F1F4F44CFB0EE4B2AA5
:102CE00055245A94652C762CB9CF8E889F888E8D6A
:102CF0009F8D40912802442351F0C29EF001C39E53
:102D0000F00D1124E45BFC4FE491E0FF1AC0C29E79
:102D1000F001C39EF00D1124E05BFC4F259134912E
:102D2000F90119950FB6F8949EBE0FBE8DBE02151F
:102D3000130508F40ECFCC24C3940C941E0E84010A
:102D4000B6CF809129021F928F93E8E4F3E1FF93BD
:102D5000EF930E945C1C0FB6F8949EBE0FBE8DBE12
:102D6000E6CFD60156968C91F601E80FF11D778AD1
:102D700091E0DFC885E00E94551C1D2D0C94130EB8
:102D8000342D452D562D672DAFCBF1E0F91508F404
:102D9000AACC91C98230910589F05CF0833091050D
:102DA00029F0049771F48DE10E94551C8EE10E9478
:102DB000551C019739F48FE10E94551C8CE10E944B
:102DC000551C089508950F931F93FC01A489B5899C
:102DD00086898C9393A181E0892783A344815581BF
:102DE0006681778180FF12C0008511852285338539
:102DF000400F511F621F731F82FD12C04483558311
:102E00006683778381E01F910F910895048515856E
:102E100026853785400F511F621F731F82FFEECF3B
:102E20000089118922893389872F4017510762074A
:102E3000830B87FDE3CF87E497E193838283B90116
:102E4000A801448355836683778381E01F910F91A6
:102E500008950895FC018081A481B5814085518544
:102E6000628573859FB7F894813061F0823019F0E4
:102E70004C939FBF08954D935D936D937C931397EF
:102E80009FBF089511965C934E939FBF08958F92B4
:102E90009F92AF92BF92CF92DF92EF92FF921F93D9
:102EA000CF93DF93EC01EF8CF8A0E114F10409F467
:102EB000F0C0F7018081918198A38F8F86809780E1
:102EC000A084B18411E081149104A104B10409F437
:102ED000A1C06C897D898E89412F0E94AA2A809188
:102EE0003D0290913E02F70191838083F0923E0271
:102EF000E0923D0281149104A104B104E9F08B8DAC
:102F00009C8DAD8DBE8D88169906AA06BB06A0F4D1
:102F10004F89588D698D7A8D41155105610571056F
:102F200009F45BC08C819D81AE81BF81480F591F20
:102F30006A1F7B1F166022C08BA131E081149104AF
:102F4000A104B10409F068C084FB992790F921E03D
:102F50009227391709F443C04F89588D698D7A8DAE
:102F60004115510561057105D1F18C819D81AE81BD
:102F7000BF81480F591F6A1F7B1F1460EF8DF8A196
:102F8000309709F077C02BA1488B598B6A8B7B8BCC
:102F90002071212B2BA311FF5FC0880D991DAA1D45
:102FA000BB1D12FD52C023EE36E13B832A838C8386
:102FB0009D83AE83BF8388869986AA86BB868B8DC8
:102FC0009C8DAD8DBE8D88199909AA09BB098C8786
:102FD0009D87AE87BF8781E011C012608BA1EF8D06
:102FE000F8A13097D9F4188A198A1A8A1B8A807135
:102FF000812B8BA3812F827011FD34C0DF91CF9183
:103000001F91FF90EF90DF90CF90BF90AF909F9077
:103010008F90089510E05DCF30E096CF42815381CC
:1030200064817581488B598B6A8B7B8B8071912F62
:103030009460892B8BA311FF0FC08C819D81AE8181
:10304000BF81880D991DAA1DBB1D2B2F84179507C5
:10305000A607270B27FDA7CF4C835D836E837F8355
:1030600081E0CCCF40E050E0BA018C819D81AE81FF
:10307000BF8193CFC280D380E480F580872F4C1529
:103080005D056E058F0987FD07C08BA1B701A601FD
:10309000C9CF85E10E94551C83E10E94551CFC01AB
:1030A00085818F9384818F9380811F928F938EE18E
:1030B00093E19F938F930E945C1C0F900F900F9051
:1030C0000F900F900F900895DC012C911496ED91C4
:1030D000FC9115973FB7F8942130E9F02230B1F018
:1030E000808190E0A0E0B0E03FBFBF93AF939F939B
:1030F0008F9388E193E19F938F930E945C1C0F90C4
:103100000F900F900F900F900F90089580819181F4
:10311000A281B381E9CF80819181A0E0B0E0E4CFCA
:103120008F929F92AF92BF92FF920F931F93CF9374
:10313000DF938C0161E279E1FC0180810E94352BF3
:10314000EC010E94023F8F8D98A1892B09F058C095
:10315000F80104811BA1FF24F394002339F16C8949
:103160007D898E894F2D0E94AA2A21E001111CC061
:1031700014FB882780F991E08927281741F08F896F
:10318000988DA98DBA8D892B8A2B8B2B89F4107180
:103190001F291BA3DF91CF911F910F91FF90BF902B
:1031A000AF909F908F90089520E0E2CFF12CD7CF81
:1031B0000E94AC298F88988CA98CBA8CDC01CB0139
:1031C000880D991DAA1DBB1D888B998BAA8BBB8B63
:1031D0008C839D83AE83BF8387E497E19B838A833F
:1031E000107114601F291BA3CE01DF91CF911F9195
:1031F0000F91FF90BF90AF909F908F900C94543F91
:1032000082E10E94551CCF93DF93EC0161E279E1EA
:1032100088810E94352BF894FC01278D30A1232B47
:1032200069F44C815D816E817F81FC01438F548FF5
:10323000658F768F7894DF91CF91089584E10E9415
:10324000551CCF92DF92EF92CF93DF93EC0161E0B8
:1032500088859985AA85BB85892B8A2B8B2B09F4B8
:1032600060E08C810E9455286B01E82E44E250E01A
:1032700061E279E188810E940F2BFC01C48AD58A22
:10328000E68A21E0488559856A857B85452B462B52
:10329000472B09F420E04C855D856E857F85452BA5
:1032A000462B472BB1F430E0232BFC0123A34889A4
:1032B00059896A897B89478B508F618F728F6AE049
:1032C00070E04F96DF91CF91EF90DF90CF900C940C
:1032D000972B30E1E9CFCF92DF92EF92FF920F93DD
:1032E0001F93CF93DF938C0161E279E1DC018C9134
:1032F0000E94352BEC010E946742FC01D801149614
:10330000CD90DD90ED90FC901797C282D382E4823D
:10331000F58218964D915D916D917C911B97468336
:10332000578360877187F894118210828F8D98A1DE
:10333000892B81F0A9A1BAA1ED93FC93FAA3E9A38B
:103340007894DF91CF911F910F91FF90EF90DF90D4
:10335000CF900895FAA3E9A3F8A3EF8F8BA182FD84
:1033600025C0C88AD98AEA8AFB8A982F94609BA3D1
:1033700081FD10C0CE010E94023FCC82DD82EE8230
:10338000FF8287E497E19B838A83CE010E94543FAA
:103390007894D7CF4C815D816E817F81872F4C15CA
:1033A0005D056E058F0987FFE5CFF2CF4889598902
:1033B0006A897B89972F4C155D056E059F0997FFDC
:1033C000D0CF83E10E94551C81E20E94551C0F93CF
:1033D0001F93CF93DF93FC01A189B2898D919C91BA
:1033E0001197928B818B16968D919C911797C08522
:1033F000D185228521113FC02FB7F894AC01552704
:10340000598348832FBF20913D0230913E0211968F
:103410003C932E93B0933E02A0933D02A189B289C2
:10342000109759F5278530898217930741F08385D6
:103430009485A585B6850097A105B10531F480E096
:10344000DF91CF911F910F9108954481558166813D
:103450007781840F951FA61FB71F84839583A6834A
:10346000B78384EE99E19383828381E0DF91CF91EA
:103470001F910F9108958883C6CF12964D915D914B
:103480006D917C911597278530898217930741F0BC
:1034900083859485A585B6850097A105B10551F46E
:1034A000448355836683778381E0DF91CF911F91B9
:1034B0000F9108950481158126813781800F911F16
:1034C000A21FB31F2B2F84179507A607270B27FFD3
:1034D000E7CF80E20E94551CEF92FF920F931F935B
:1034E000CF93DF937C0166EE7AE1DC018C910E9440
:1034F000352B8C010E946742EC01F7018481958194
:10350000A681B7818A839B83AC83BD8380859185A7
:103510009F838E83F89419821882D80151968D91D9
:103520009C915297892BB9F15396ED91FC91549748
:10353000D183C0835496DC93CE93539780E090E080
:103540007894892B39F4DF91CF911F910F91FF90DF
:10355000EF900895C8010E94023FD80112968D9104
:103560009C911397845E9941F1F08A819B81AC8193
:10357000BD8127EE39E1F80133832283848395836B
:10358000A683B783C801DF91CF911F910F91FF9060
:10359000EF900C94543FF801D48BC38BD28BC18B2A
:1035A00081E090E0CDCF8A819B81AC81BD81F80123
:1035B0004481558166817781272F481759076A070B
:1035C0002B0B27FFD6CF80E20E94551CCF92DF92B3
:1035D000EF92CF93DF93EC01488559856A857B850F
:1035E0002C858C810E945B326B01E82E45E150E016
:1035F00066EE7AE188810E940F2BFC01C086D1869D
:10360000E28688899989908B87878C899D89AE8984
:10361000BF8983879487A587B68787EE99E19383CF
:10362000828368E070E0CF014196DF91CF91EF9007
:10363000DF90CF900C94972B80914402909145029B
:103640009F938F9321E030912802311101C020E037
:103650001F922F93209149022F93209148022F937C
:10366000209147022F93209146022F9321E0892B2E
:1036700009F420E01F922F9384E293E19F938F93AC
:103680000E945C1C8DB79EB70C960FB6F8949EBF37
:103690000FBE8DBF0895CF92DF92EF92FF920F93EE
:1036A0001F930E94AC299F938F937F936F9301E0A8
:1036B00010E020E030E0C0904E02D0904F02E09049
:1036C0005002F09051026C157D058E059F0518F093
:1036D00000E010E0980180914A0290914B02A09185
:1036E0004C02B0914D02800F911FA21FB31FBF93D8
:1036F000AF939F938F9380E393E19F938F930E9467
:103700005C1C8DB79EB70A960FB6F8949EBF0FBE8D
:103710008DBF1F910F91FF90EF90DF90CF90089594
:103720000E94AC299F938F937F936F938AE293E1DA
:103730009F938F930E945C1C0F900F900F900F909F
:103740000F900F9008950F931F93CF93DF938C01E9
:103750008091440290914502892B09F04BC0609101
:10376000430270E0623071052CF482E080934302E2
:1037700062E070E0E0913F02F09140024DB75EB729
:1037800041505F4F44275A959F01C0E0D0E0C901E6
:10379000860F971F4817590730F121969C01C115D4
:1037A000A4E0DA07A1F78E1B9F0B0E947B42D09307
:1037B0004502C093440290934202809341020E94CA
:1037C0004D2BF80180819181A281B38180934602C3
:1037D00090934702A0934802B0934902DF91CF91A2
:1037E0001F910F910895209711F0C901DCCF80E15E
:1037F0000E94551C8DE00E94551C80912802882350
:1038000029F0823011F010922802089582E00E947F
:10381000551C88E00E94551CCF92DF92EF92FF92D8
:10382000FC0140815181628173812481EFE7F2E1E3
:1038300085919591A591B491481759076A077B071F
:1038400070F56A017B01C20ED11CE11CF11C8C15C4
:103850009D05AE05BF0500F5841B90E09A01285533
:10386000394F3F932F939F938F937F936F935F93E2
:103870004F938CE393E19F938F930E945C1C8DB7D1
:103880009EB70A960FB6F8949EBF0FBE8DBFFF90ED
:10389000EF90DF90CF900895822F90E0DFCF80E00F
:1038A00090E0DCCF8EE00E94551CF894682F70E009
:1038B00082E592E00E948F462F923F925F926F9234
:1038C0007F928F929F92AF92BF92CF92DF92EF92B0
:1038D000FF920F931F93CF93DF93CDB7DEB7289757
:1038E0000FB6F894DEBF0FBECDBF80916A02882369
:1038F000C1F028960FB6F894DEBF0FBECDBFDF91A2
:10390000CF911F910F91FF90EF90DF90CF90BF90DC
:10391000AF909F908F907F906F905F903F902F908F
:10392000089581E080936A028E01015E1F4F20910D
:10393000A1035090A0032515C0F4452D50E0CD8C77
:10394000DE8C32E0C30ED11CF60184913A01680E80
:10395000711CC3018136910554F1821B9109813696
:10396000910560F010926A02C4CF1092A0031092E9
:10397000A10340E050E0512C20E0E1CF1092A003E1
:103980006091A103561AE52CF12C70E0605C7C4F2D
:10399000A70180E493E00E94D3461092A1035092C5
:1039A000A0038091C10080628093C100A7019A01A9
:1039B000205C3C4F7901F601A491A63008F440C187
:1039C000C9010296CA2ED12CF5E0CF1AD108C80E33
:1039D000D91EED8DFE8D33964491ED8DFE8D34967E
:1039E000859094905401ED8DFE8D25913491203871
:1039F000310508F00AC1BC016F5F7F4F7E836D8384
:103A00002F77DC012C933401640E711C78866F8251
:103A10006F807884A614B70409F441C18D809E801C
:103A2000C814D90448F0F5018491853009F4BFC069
:103A300008F441C0883018F086E00E94551CF80157
:103A400020813181F6016D807E80E619F709AF0192
:103A5000FF0F660B770B49835A836B837C83A90125
:103A6000330F660B770B69807A808B809C8064169D
:103A700075068606970608F4D4C06D807E802FEF09
:103A8000621A720AAD81BE814C931801B4E02B0E0C
:103A9000311CF801228133818A01B901863009F491
:103AA000C3C0C3010E94CA464301800E911E9E827C
:103AB0008D828101A6C0823008F4BAC0833009F437
:103AC000E4C0F801408151813A01812C912C0E5FB4
:103AD0001F4FD401C3018096A11DB11D80389105EF
:103AE000A105B10508F4CEC0A4019301305F4F4F8A
:103AF0005F4F211530444105510508F43FC0D40102
:103B0000C30118960097A042B10540F1A4019301AA
:103B10005C5F211531054105504180F0D401C3019E
:103B20005CE1B695A795979587955A95D1F78068EA
:103B3000AD81BE818C931196BE83AD83D401C30148
:103B400045E1B695A795979587954A95D1F78068F1
:103B5000AD81BE818C931196BE83AD83D401C30128
:103B60003EE0B695A795979587953A95D1F78068E9
:103B7000AD81BE818C931196BE83AD83ED81FE81B4
:103B80003196D401C30127E0B695A79597958795FF
:103B90002A95D1F78068AD81BE818C939F012F5FFC
:103BA0003F4F3E832D83462D4F7740832AC0980197
:103BB0002E5F3F4FF801A081B1818D819E810196DA
:103BC0006C91662399F08C159D0580F4FD0131966A
:103BD00004C0C816D90609F453C00196AC0141507F
:103BE0005109DA016C9361916111F3CFAC016D80E1
:103BF0007E80461957094150D3014C939E838D8393
:103C000089012FEFA21AB20A03CF0196B901660FFC
:103C1000672F661F770B71956068D70112966C93BA
:103C2000EACEB401A30129CFC3010E94B4463CCF20
:103C3000D8016D907D908D909C900C5F1F4F49CF67
:103C40001A2FD7011C938091080211968C936DEF67
:103C5000610FC7010E94C229E10EF11CF7013397E1
:103C600090833196808331968EE78083A52DA10FB6
:103C7000A093A0038091C10080628093C10072CEA6
:103C8000C601B4CFED81FE8189CFD8014D915C9101
:103C90003A01550F880899080E5F1F4F1ACF0D8102
:103CA0001E810E191F0913E0100FCBCFCF93DF93A6
:103CB000CDB7DEB729970FB6F894DEBF0FBECDBFE4
:103CC00082EA93E09093400280933F02FFB6F8941B
:103CD0001092800001E000938100E4E8F0E011829E
:103CE000108280819181C296909389008093880090
:103CF00012E016BB80819181C29690938B008093D5
:103D00008A0084E086BB89E092E00E94543F06BBB3
:103D100010936F00FFBE9DE088E10FB6F894A89560
:103D2000809360000FBE9093600080E480936000F9
:103D30001093C00087E090E09093C5008093C4008A
:103D400086E08093C20088EB8093C1008EE493E10B
:103D50009F938F930E945C1C0F900F90F89482E5C4
:103D600092E00E946D468C01892B19F478940E9490
:103D7000350AF8940E94AC29F62EE72ED82EC92ECB
:103D8000E2E2F2E08681811101C0078382E292E0E3
:103D900022E0DC0116962C93169700E012E00D93BA
:103DA0001C93EAE1F2E04481558166817781D80174
:103DB00014964D935D936D937C931797DC01139646
:103DC000FC93EE931297D801ED93FC9382E192E07D
:103DD000918380838091840090918500C296909316
:103DE00089008093880026BB10926A020E944D2BA6
:103DF0008FEF898781E1B82E13C0F80143A140718C
:103E00006489758986890E94AA2AD80193968C9123
:103E1000982F907184FD9B2DF80193A310A2178E0B
:103E200061E279E1CE0109960E94EB2A8C01892B8F
:103E300021F78FEF888709C0DC0195961C921E92AE
:103E4000949760E088960E9452316FE273E3CE014E
:103E500008960E94EB2A009779F78FEF8F8302C0B4
:103E60000E945D3A6DEA79E3CE0107960E94EB2A43
:103E70000097B1F78FEF8E831FEF0AC09091110268
:103E8000828D981302C010931102868D8111D1C0CA
:103E900069E47EE3CE0106960E94EB2AFC01892BA1
:103EA00069F78FEF8D8311E004C0FC01258120FDAF
:103EB000DAC063E77DE3CE0105960E94EB2A009706
:103EC000A1F78FEF8D830CC09C012D5F3F4FDC016C
:103ED00012964C91129760E08D919C910E94B521B1
:103EE00068E871E2CE0105960E94EB2A009761F71F
:103EF0008FEF8C8307EE19E10BC02FB7F894992749
:103F000011969C938E932FBF13830283128A118A7A
:103F100066EE7AE1CE0104960E94EB2AFC01892B21
:103F200049F087859089A085B1852285222329F3D0
:103F30008C93EACF8FEF8B8302C00E94D22F66E76B
:103F40007FE2CE0103960E94EB2A0097B1F78FEF34
:103F50008A830FC0F80164857585868540E00E94DC
:103F6000AA2AD8011F966D917D918C9140E00E9404
:103F7000AA2A62EE7CE3CE0102960E94EB2A8C0113
:103F8000892B41F78FEF89832FC0F80161857285F6
:103F9000838540E00E94AA2AD8011C966D917D91EC
:103FA0008C9140E00E94AA2AF80167857089818976
:103FB00040E00E94AA2AD80152966D917D918C9181
:103FC00040E00E94AA2AF80165897689878940E045
:103FD0000E94AA2AD80158966D917D918C9140E05B
:103FE0000E94AA2AF801108667EB70E4CE010196C0
:103FF0000E94EB2A8C01892B41F689E092E00E9415
:10400000543FE2E2F2E081E08683789487811F9258
:104010008F93CF92DF92EF92FF9282E493E19F938E
:104020008F930E945C1C0FB6F894DEBF0FBECDBF0D
:104030009DCE8F5F858F4089518962897389808584
:104040009185A285B385840F951FA61FB71F808B0E
:10405000918BA28BB38B84839583A683B783CF0187
:104060000E94543F15CF23FB442740F9412762812A
:10407000738184810E94AA2A1CCFCF93DF93EC0125
:104080006A8D662309F453C0FC0150E031E020E062
:10409000A38DB48D4C91958D942309F0532B2F5FF4
:1040A000330F33962613F4CF2C85922F952729F0C2
:1040B0008D85852780959823D9F4888D5D8787FD28
:1040C00003C0815070F1888F4C815D816E817F814A
:1040D00088859985AA85BB85840F951FA61FB71F64
:1040E0008C839D83AE83BF8381E0DF91CF91089560
:1040F000982F909529238523822B8C879E85983035
:10410000E0F621E0290F2E87FE01E90FF11D8787D8
:104110001092260281E080936B028FEF888F5D877B
:10412000D3CF1092260291E090936B02CCCF50E057
:10413000BBCF0F931F93CF93DF938C0166ED70E29B
:10414000FC0180810E94352BEC010E94023FF801A6
:1041500084819581A681B7818C839D83AE83BF8343
:104160004085518562857385488759876A877B8733
:1041700080898D878C871E861F8A8EEF888F848525
:10418000898F87FD10C0452B462B472B29F4DF91E3
:10419000CF911F910F910895CE01DF91CF911F9183
:1041A0000F910C94543F82E20E94551CCF93FC0166
:1041B000C481C930B8F44C2F50E09A01220F331F4C
:1041C000420F531F455E5F4F66ED70E2FC01808138
:1041D0000E940F2BFC01C28F2DE330E23383228338
:1041E000CF91089584E20E94551C0F931F93CF93A3
:1041F000DF938C0166ED70E2DC018C910E94352B1F
:10420000FC01D80114969C91828D9817B8F4292F3F
:1042100030E0E901CC0FDD1F2C0F3D1FEF01C20F75
:10422000D31FF801648580850E94712A6B8F7C8F73
:104230008D8FDF91CF911F910F91089583E20E949E
:10424000551CFC01448155816681778120858081E0
:104250000C945B3243E050E06AE271E2FC01808141
:104260000C940F2B8F929F92AF92BF92FF920F935D
:104270001F93CF93DF938C01FC0184858F77F82EF9
:104280006AE271E280810E94352BEC01F8018481A1
:104290009581A681B781892B8A2B8B2BB1F58091D3
:1042A000BC0082FF10C08F2D880F88838A818260B6
:1042B0008A83DF91CF911F910F91FF90BF90AF90B4
:1042C0009F908F900895F80180849184A284B38494
:1042D00061E089E10E94552861E088E10E9455284B
:1042E0001092B900F0E88F16FAE19F06F6E0AF06EB
:1042F000B10438F488E48093B80084E08093BC0073
:10430000D2CF8CE08093B800F8CF88E30E94551C90
:10431000CF92DF92FF920F931F93CF93DF93EC0125
:1043200063E77DE38C810E94352B6C01F8840F2DAF
:1043300010E0A8014D5F5F4F68E871E288810E943C
:104340000F2BFC01D182C082F2826C857D85A80191
:104350000396DF91CF911F910F91FF90DF90CF9047
:104360000C94CA468BE10E94551C2F923F924F92AB
:104370005F926F927F928F929F92AF92BF92CF92F5
:10438000DF92EF92FF920F931F93CF93DF9300D0B2
:1043900000D0CDB7DEB79B838A83C62E142F790158
:1043A000DC011596BC91B9838B2F867009F47DC012
:1043B000B1FD49C0AA81BB819C9111968C919CBD95
:1043C0008DBDB981B170BC83E981E0FD59C1CC20BC
:1043D00009F448C18FEF810F112351F0F70190814B
:1043E0009EBD0DB407FEFDCF9EB591938150B8F7E9
:1043F0002C81222309F459C009810695069506955A
:10440000402F40954170AA81BB8112966D917D919C
:104410008C9126960FB6F894DEBF0FBECDBFDF910C
:10442000CF911F910F91FF90EF90DF90CF90BF90B1
:10443000AF909F908F907F906F905F904F903F9044
:104440002F900C94AA2AAA81BB81ED91FC914585FD
:1044500042706681778180850E94AA2AB981B170F5
:10446000BC83E981E0FD3AC0AA81BB810D90BC917B
:10447000A02DBE83AD8319968D909D90AD90BC907C
:104480001C972401350176946794579447948418B7
:104490009508A608B7080E94AC29640D751D861DF5
:1044A000971D2FEF210F11114AC026960FB6F894D1
:1044B000DEBF0FBECDBFDF91CF911F910F91FF9057
:1044C000EF90DF90CF90BF90AF909F908F907F90B4
:1044D0006F905F904F903F902F90089509810695BF
:1044E00006950695402F4170EA81FB8162817381B8
:1044F00084810E94AA2AAA81BB810D90BC91A02D23
:10450000BE83AD8319968D909D90AD90BC901C9705
:10451000240135017694679457944794841895083C
:10452000A608B7080E94AC29640D751D861D971D4D
:104530002FEF210F112309F463CFF1E0FC8330E06A
:104540002F5F3F4F1701220E331ED701DC90ED8104
:10455000FE81258508E010E020FF47C00E947D2DE8
:10456000AD81BE811696ED91FC91179718968C91AE
:10457000189780834D2D407813966D917D918C9185
:104580000E94AA2A0E94AC29DD0C110F680D791D2A
:104590008A1D9B1D0E947D2DAD81BE811696ED91D9
:1045A000FC91179718968C9118978083ED91FC9148
:1045B0001197908112968C91892391E009F490E0F3
:1045C000192B0E94AC29640D751D861D971D015085
:1045D00029F6CC2011F0F7011083FFEFEF1AFF0A44
:1045E0002E143F0409F0B1CF03CF0E947D2D4D2D35
:1045F0004078ED81FE816381748185810E94AA2AC1
:10460000AD81BE811696ED91FC91179718968C910D
:1046100080830E94AC29DD0C110F680D791D8A1D65
:104620009B1D0E947D2DAD81BE81ED91FC91119766
:10463000908112968C91892391E009F490E0192BD6
:10464000AD81BE811696ED91FC91179718968C91CD
:1046500080830E94AC29640D751D861D971D015035
:1046600021F6B7CFF7019701210F311D2E173F0714
:1046700009F4BECE81918EBD0DB407FEFDCFF6CFFD
:10468000B981B3FB442740F9EA81FB8162817381E0
:1046900084810E94AA2AF1E0FC8399CECF93DF9314
:1046A000EC0163E77DE388810E94352B28853985FD
:1046B0004C8160E0DF91CF910C94B521FF920F9374
:1046C0001F93CF93DF93EC01188163E77DE3812F84
:1046D0000E94352B0C81F884C9852F2D3C2F402F4B
:1046E00061E00E94B521CF93FF921F920F931F921A
:1046F0001F938AEF92E19F938F930E945C1C8DB76A
:104700009EB708960FB6F8949EBF0FBE8DBFDF917F
:10471000CF911F910F91FF900895FC01868580FF36
:1047200006C0218932892F5F3F4F328B218B81FF59
:104730000DC0DF01A95BBF4F0D90BC91A02D2C9146
:10474000DF01A75BBF4F9C91922339F4816086877C
:104750001092260281E080936F0244815581668128
:10476000778180859185A285B385840F951FA61FCB
:10477000B71F84839583A683B78381E00895CF9381
:10478000DF93FC0180859185A285B3852189222351
:10479000F1F0258936892F5F3F4F368B258B880FA7
:1047A000991FAA1FBB1F880F991FAA1FBB1F4481F7
:1047B000558166817781840F951FA61FB71F84835B
:1047C0009583A683B78381E0DF91CF910895C48557
:1047D000D58538812685232351F721E0218B10923E
:1047E000260220936E02880F991FAA1FBB1F880FF5
:1047F000991FAA1FBB1F880F991FAA1FBB1FD7CFC6
:10480000CF93DF93FC0182859385A485B5852185AF
:1048100020FF20C0228D338D2F5F3F4F338F228F9B
:1048200023E02187880F991FAA1FBB1F880F991F9C
:10483000AA1FBB1F4481558166817781840F951F14
:10484000A61FB71F84839583A683B78381E0DF917A
:10485000CF910895C289D38938812489232351F7C0
:1048600021E021871092260220936D02880F991F64
:10487000AA1FBB1F880F991FAA1FBB1F880F991F54
:10488000AA1FBB1FD7CFFC0192899160928B109217
:10489000260281E080936C0280E008952F923F927F
:1048A0004F925F926F927F928F929F92AF92BF9240
:1048B000CF92DF92EF92FF920F931F93CF93DF93EC
:1048C0001F921F92CDB7DEB73C016FE975E2FC0184
:1048D00080810E94352B4C01FC01868581FF36C00A
:1048E000F8940E94AC299B01AC01F401E95BFF4FF5
:1048F0000190F081E02D9081F401E75BFF4F808112
:1049000089237894882309F448C0A12CB12C65012F
:10491000E12CF12C8701F3016081C4010F960E9404
:10492000E1290F900F90DF91CF911F910F91FF9090
:10493000EF90DF90CF90BF90AF909F908F907F903F
:104940006F905F904F903F902F9008950E94AC29F8
:104950001B012C01AE014F5F5F4F68E1F4018485BC
:1049600095850E944F4209811A81102701270E94D4
:10497000AC2903FD0CC0A12CB12C65017B018C017D
:10498000E218F30804091509A2019101C4CF24E03B
:10499000A22EB12CC12CD12CF1CF64E0A62EB12CCB
:1049A000C12CD12CB5CF0F931F93CF93DF938C01E4
:1049B0006FE975E2DC018C910E94352BEC01F80166
:1049C00080859185A285B385FE01E15BFF4F8083E1
:1049D0009183A283B383892B8A2B8B2B59F4359730
:1049E00011821082C45BDF4F1882DF91CF911F913B
:1049F0000F910895F80184819581A681B781FE0108
:104A0000ED5AFF4F80839183A283B3836DEA79E3EC
:104A1000D8011C968C910E94352BFE01E65BFF4F5E
:104A2000918380833396D80150968C9150978083E0
:104A3000319654968C918083C45BDF4F86E08883E7
:104A4000DF91CF911F910F9108959F92AF92BF92E6
:104A5000CF92DF92EF92FF920F931F93CF93DF934A
:104A6000FC01908061EB76E2892D0E94352BEC01F0
:104A7000F8940E94AC299B01AC01EC85FD859081E6
:104A80008E85892378948823B9F0A12CB12C6501F7
:104A9000E12CF12C8701692DCE0143960E94E1297A
:104AA000DF91CF911F910F91FF90EF90DF90CF900A
:104AB000BF90AF909F90089584E0A82EB12CC12C98
:104AC000D12CE6CF9F92AF92BF92CF92DF92EF921E
:104AD000FF920F931F93CF93DF93FC01908068E2C6
:104AE00077E2892D0E94352BEC01F8940E94AC29C5
:104AF0009B01AC01EA89FB8990818C898923789498
:104B00008823B9F0A12CB12C6501E12CF12C87018F
:104B1000692DCE0148960E94E129DF91CF911F9126
:104B20000F91FF90EF90DF90CF90BF90AF909F904C
:104B3000089584E0A82EB12CC12CD12CE6CF0F9380
:104B40001F93CF93DF938C0147E550E06FE975E247
:104B5000FC0180810E940F2BEC018DE893E29B8386
:104B60008A836AE271E2F80184810E94352B9D8775
:104B70008C87DF91CF911F910F9108950F931F9311
:104B8000CF93DF938C014BE450E06EEB75E2FC01B8
:104B900080810E940F2BEC0183E494E29B838A8343
:104BA0006AE271E2F80184810E94352B9D878C872F
:104BB000DF91CF911F910F9108950F931F93CF9382
:104BC000DF938C016FE975E2FC0180810E94352B37
:104BD000EC010E94023F8E858E7F8E87F8018481D2
:104BE0009581A681B7810097A105B105F1F088876D
:104BF0009987AA87BB87188A1F861A8A198A1B8AEF
:104C0000F8940E94AC29088519852A853B85DC012A
:104C1000CB01800F911FA21FB31F8C839D83AE8396
:104C2000BF83CE010E94543F7894DF91CF911F91B2
:104C30000F9108950F931F93CF93DF938C0161EB36
:104C400076E2FC0180810E94352BEC010E94023F3C
:104C5000198AF80184819581A681B781888799870F
:104C6000AA87BB87892B8A2B8B2BD1F01C8A1B8AA6
:104C70001E8A1D8A1F8AF8940E94AC29088519850E
:104C80002A853B85DC01CB01800F911FA21FB31F3A
:104C90008C839D83AE83BF83CE010E94543F789462
:104CA000DF91CF911F910F9108950F931F93CF9391
:104CB000DF93FC01C081D181128103816FE975E22C
:104CC0008C2F0E94352BFC01ED5AFF4F23812F932F
:104CD00022812F9321812F9320812F9337978081D9
:104CE00082FB882780F91F928F930F931F93DF9386
:104CF000CF9380ED92E19F938F930E945C1C8DB7C0
:104D00009EB70C960FB6F8949EBF0FBE8DBFDF9175
:104D1000CF911F910F910895EF92FF920F931F93E0
:104D2000CF93DF93EC010E949F256FE975E28881A4
:104D30000E94352B8C017C0187E4E80EF11C61E0B8
:104D400088850E94712AF70160837183828382E0E3
:104D5000F8018687DF91CF911F910F91FF90EF901F
:104D600008950F931F93CF93DF938C014BE450E092
:104D700061EB76E2FC0180810E940F2BEC018FEB4E
:104D800093E29B838A83198A63E77DE3F801848138
:104D90000E94352B988B8F8760E0F80180850E94F8
:104DA000712A6C877D878E87DF91CF911F910F913C
:104DB00008950F931F93CF93DF938C0168E277E2FE
:104DC000FC0180810E94352BEC010E94023F198674
:104DD0001E861F86188A198AF80184819581A6810A
:104DE000B7818A879B87AC87BD87892B8A2B8B2BC2
:104DF00029F16D897E898F8940E00E94AA2A198E47
:104E0000188E1B8E1A8E1C8EF8940E94AC290A856F
:104E10001B852C853D85DC01CB01800F911FA21FD6
:104E2000B31F8C839D83AE83BF83CE010E94543F0A
:104E30007894DF91CF911F910F9108956D897E89AC
:104E40008F8941E0DF91CF911F910F910C94AA2A95
:104E50000F931F93CF93DF93EC0140E550E068E29E
:104E600077E288810E940F2B8C0180E094E2F801A8
:104E7000938382838C819FEF980F9430C8F4F8015C
:104E8000808761E088850E94712AF801628B738BAC
:104E9000848B60E08C850E945528F801658B768BA9
:104EA000878B41E0DF91CF911F910F910C94AA2A3B
:104EB0008EE20E94551C2F923F924F925F926F920A
:104EC0007F928F929F92AF92BF92CF92DF92EF929A
:104ED000FF920F931F93CF93DF9300D01F921F92E7
:104EE000CDB7DEB73C016EEB75E2FC0180810E941C
:104EF000352B4C018BE18B838E010C5F1F4F21E022
:104F0000AE014D5F5F4F61E0F401848595850E949D
:104F100069440E94CA168C818F7031F0F401858932
:104F200096890196968B858B80E78D830E94AC29AC
:104F30001B012C018E010F5F1F4F22E0AE014B5F62
:104F40005F4F61E0F401848595850E9469440E9469
:104F5000CA160E94AC2929812F71A22EB12CBA2C1D
:104F6000AA242A81A22A0B2C000CCC08DD087B0184
:104F70008C01E218F30804091509A2019101F3015B
:104F80006081C40143960E94E1290F900F900F9019
:104F90000F900F90DF91CF911F910F91FF90EF90A5
:104FA000DF90CF90BF90AF909F908F907F906F9049
:104FB0005F904F903F902F9008950F931F93CF9342
:104FC000DF93EC01F8940E94AC29088519852A85A5
:104FD0003B85DC01CB01800F911FA21FB31F8C8387
:104FE0009D83AE83BF83CE010E94543F7894DF91AE
:104FF000CF911F910F9108950F931F93CF93DF933C
:105000008C016EEB75E2FC0180810E94352BEC0176
:105010000E94023F1A8AF80184819581A681B78196
:105020000097A105B10529F4DF91CF911F910F9150
:10503000089588879987AA87BB871C8A1B8A1E8A3E
:105040001D8A1F8A1F861E86198A188ACE01DF9143
:10505000CF911F910F910C94DD27B0990FC08091D3
:10506000700290917102019610920E0210920D0240
:105070009093100280930F0281E0089581E086BB37
:1050800080917002909171020196909371028093C9
:10509000700220E030E830930E0220930D029093CE
:1050A000100280930F0281E00895803678F5E82F92
:1050B000E695E695E695F0E0EE0FFF1FEC5AFC4E04
:1050C000A591B491109711F1877021E030E0A9010A
:1050D00002C0440F551F8A95E2F7CA013FB7F89402
:1050E00012962C91129761110FC0409524231296AD
:1050F0002C93129711962C911197282B11962C9383
:1051000011973FBFBD010895242BF1CF83E30E9487
:10511000551C1F920F920FB60F9211240BB60F92CF
:10512000EF92FF920F931F932F933F934F935F93B1
:105130006F937F938F939F93AF93BF93CF93DF939F
:10514000EF93FF930DC07A018091840090918500C8
:105150008E199F0997FD7CC07894B2999AC0F894F3
:10516000C0912202D0912302EA81FB81309709F09D
:10517000ACC0EA8DFB8D2C8D20838E859F85019799
:1051800009F4D2C09F878E8788859985AA85BB85BB
:105190004C815D816E817F81480F591F6A1F7B1F83
:1051A0004C835D836E837F8320832CA526FF0EC0F6
:1051B0000C851D85012E000C220B330B800F911FD7
:1051C000A21FB31F88879987AA87BB87E881F981C7
:1051D0000481158126813781872F40175107620787
:1051E000830B87FDB0CF7801F0932302E093220276
:1051F000A0912402B091250214960D911D912D913C
:105200003C911797872F401751076207830B87FF41
:10521000FD01DF010190F081E02D048115812681DF
:105220003781872F401751076207830B87FFF1CF24
:10523000F983E883CD93DC93D0932502C0932402B5
:1052400080918400909185008E199F0997FF84CFEB
:10525000863A9F4F0CF07BC0F0928900E092880064
:10526000FF91EF91DF91CF91BF91AF919F918F917E
:105270007F916F915F914F913F912F911F910F916E
:10528000FF90EF900F900BBE0F900FBE0F901F90EE
:105290001895F89480918400909185009701281BBF
:1052A000390B2038314C0CF44BC02091270227FDDC
:1052B00029C09C012854344F30938B0020938A00DE
:1052C00024E026BB7C01F394C7CFCE0119954C8115
:1052D0005D816E817F81811179CFE881F981E480E0
:1052E000F580F0932302E0932202809124029091B2
:1052F0002502C817D90709F027CFF0932502E093BC
:10530000240222CF20912602209327029C01205CB8
:10531000304E30938B0020938A0024E026BB90937C
:1053200089008093880010CFCE010E94B333EA8DAC
:10533000FB8D9C8D90834C815D816E817F81CBCF75
:10534000209128022111B1CF81E30E94551C78944D
:10535000B2999FCFF894F8CE2FB7F894609184005B
:10536000709185008091700290917102B09902C095
:105370002FBF08952FBF7F3FE1F3019608957894E2
:105380000E94561E2FEF260F6623C1F0FC018FEFFF
:105390009FEF31918327082E8295807F8025092EEB
:1053A000982F82958F700826869598278927880FD1
:1053B000880F880F8025215060F708958FEF9FEFA9
:1053C00008956F927F928F929F92AF92BF92CF92E9
:1053D000DF92EF92FF920F931F93FC0183818F93D3
:1053E00082818F93848135014601680E711C811C76
:1053F000911CD401C301BF93AF939F936F9281819E
:105400008F9380818F931F930F93FF92EF925F93FF
:105410004F933F932F931F926F9384EC92E19F934E
:105420008F930E945C1C8DB79EB744960FB6F8947C
:105430009EBF0FBE8DBF1F910F91FF90EF90DF9029
:10544000CF90BF90AF909F908F907F906F90089576
:10545000CF92DF92EF92FF926B017C0109C00E9414
:10546000AC29292F6C157D058E052F0927FF09C052
:105470008091BC0087FFF3CFFF90EF90DF90CF903B
:10548000089587E30E94551C24EA2093BC000E94E3
:10549000282A8091B90090E0A0E0B0E08031910529
:1054A000A105B10521F00897A105B10509F40895FA
:1054B00086E30E94551CFB012FB7F89492811416C5
:1054C00044F4982B809592839181892381832FBF07
:1054D00008958095982392839181892381832FBF9A
:1054E00008958036A0F567FD32C0E82FE695E69571
:1054F000E695F0E0EE0FFF1FEC5AFC4EA591B4913B
:10550000109729F1877021E030E0A90102C0440F13
:10551000551F8A95E2F7CA014FB7F89412963C914D
:105520001297662381F0382B282F209512963C93F2
:10553000129711963C911197232311962C93119752
:105540004FBFBD010895282F20953223EFCF82E36E
:105550000E94551CFB012FB7F8949281411105C0A0
:105560008095892382832FBF0895892B82832FBF43
:105570000895FB012FB7F8949281411109C0382F8B
:105580003095932392839181892B81832FBF089536
:10559000982B92839181892B81832FBF0895CF937C
:1055A0002091730230917402232B91F4FC01C0818D
:1055B0008C2F90E0880F991F880F991F0E947B42C3
:1055C0009093740280937302C0937202CF910895F6
:1055D0008AE00E94551CCF93DF93EC0198814091A3
:1055E0007202A0917302B09174020BC0FD0184E0BD
:1055F000989FE00DF11D1124208131812617370776
:1056000041F09F5F941790F380E090E0DF91CF919D
:105610000895988382819381DF91CF910895CF93EC
:10562000DF93909172028917E8F4C0917302D091D0
:10563000740294E0899FC00DD11D11248881998145
:10564000892B81F48091440290914502892B51F479
:1056500079836883CA010E947B429B838A83DF919E
:10566000CF9108958BE00E94551C9091720289178A
:1056700088F4E0917302F091740294E0899FE00D48
:10568000F11D1124808191818617970719F4828179
:10569000938108958CE00E94551CCF92DF92EF9287
:1056A000FF92CF93DF93C0914402D091450220979F
:1056B000B9F121976E01E12CF12CA0914302B0E0E9
:1056C0002097D9F020E030E040E050E0BA0180912E
:1056D000410290914202FC01E20FF31F4F5F5F4FC6
:1056E0006F4F7F4F2A0F3B1F820F931F9183808341
:1056F0004C155D056E057F0550F380914102909138
:105700004202CA9FF001CB9FF00DDA9FF00D1124E9
:10571000E80FF91F1182108290933E0280933D02A0
:10572000DF91CF91FF90EF90DF90CF900895FC0133
:1057300013821282118210826F3F710509F07CF48E
:105740008091440290914502892B49F48091430253
:1057500090E08617970714F46093430208950E941F
:10576000521CFC011092260281E080937502818D0B
:105770008160818F448155816681778180859185A3
:10578000A285B385840F951FA61FB71F84839583B9
:10579000A683B78381E008950F931F93CF93DF9380
:1057A0008C016EE07CE2FC0180810E94352BEC01D3
:1057B0000E94023FF80184819581A681B7818C8384
:1057C0009D83AE83BF8380859185A285B3858887BD
:1057D0009987AA87BB87892B8A2B8B2B29F4DF918A
:1057E000CF911F910F91089584859585A685B785E2
:1057F0008C879D87AE87BF8780899189A289B3896D
:10580000888B998BAA8BBB8B84898E8B1F8ACE0148
:10581000DF91CF911F910F910C94543FFF920F9302
:105820001F93CF93DF93EC01F88483E08F15E0F0B2
:105830004AE150E06EE07CE288810E940F2B8C01EF
:1058400081EB9BE2F8019383828363E77DE38C81A4
:105850000E94352BF801958B848BF08EDF91CF91D0
:105860001F910F91FF90089589E20E94551CEF92BD
:10587000FF920F931F93CF93DF938C016AE271E243
:10588000FC0180810E94352B7C0181E190E00E9427
:105890007B42EC01F80184859585A685B7858D87C7
:1058A0009E87AF87B88B8089880F8C8761E0848161
:1058B0000E94712A6E837F83888761E0F80184816A
:1058C0000E945528688379838A8361E0F801808586
:1058D0000E94712A69877A878B8761E0F801808549
:1058E0000E9455286B837C838D83F701D183C0830D
:1058F000828181608283DF91CF911F910F91FF9010
:10590000EF9008958F929F92AF92BF92CF92EF92B5
:105910000F931F93CF93DF93EC01480159011F921E
:10592000EF92BF92AF929F920F937F936F935F938B
:105930004F931F92CF9286ED92E19F938F930E9497
:105940005C1C8DB79EB70E960FB6F8949EBF0FBE27
:105950008DBFE11009C08C859D85AE85BF858816F9
:105960009906AA06BB0688F48F898F5F8F8B9E8964
:105970008917B0F4DF91CF911F910F91EF90CF90E5
:10598000BF90AF909F908F90089588899989AA8938
:10599000BB8988159905AA05BB0530F31F8AEACF94
:1059A000809128028111FACF88E20E94551CCF9382
:1059B000DF93EC016B817C818D8140E00E94B92AEC
:1059C0006E817F81888541E00E945B2A69857A85A6
:1059D0008B8541E0DF91CF910C945B2AFF920F936E
:1059E0001F93CF93DF938C01D62FC8E082E0F82E6F
:1059F00014C0F11022C0DD0FD80116966D917D9173
:105A00008C9141E00E945B2AF80160817181828162
:105A100040E00E94B92AC150C9F0D7FFEACF81E027
:105A2000F81649F3D80119966D917D918C9141E05A
:105A30000E945B2AFF24F394DECFF8016381748116
:105A4000858140E00E94B92AF12CD5CFF11008C021
:105A5000D80119966D917D918C9141E00E945B2A4D
:105A6000F80166817781808541E00E945B2AD80138
:105A70001996ED91FC911A97C0811B968C911B97FA
:105A8000C8236D917D918C9140E00E94B92A81E0FC
:105A900090E0C11102C080E090E0DF91CF911F91B2
:105AA0000F91FF9008951F93CF93DF93EC01162F72
:105AB00069857A858B8541E00E945B2A6E817F81B2
:105AC000888541E00E945B2A6B817C818D8140E06A
:105AD0000E94B92A688179818A8140E00E94B92AAE
